{
  "address": "0xEb9A1d5D364841813aF5ce1775371C875B006C5C",
  "abi": [
    {
      "inputs": [
        {
          "internalType": "address",
          "name": "vrfCoordinatorV2",
          "type": "address"
        },
        {
          "internalType": "bytes32",
          "name": "keyhash",
          "type": "bytes32"
        },
        {
          "internalType": "uint64",
          "name": "subscriptionId",
          "type": "uint64"
        },
        {
          "internalType": "uint32",
          "name": "callbackGasLimit",
          "type": "uint32"
        }
      ],
      "stateMutability": "nonpayable",
      "type": "constructor"
    },
    {
      "inputs": [],
      "name": "Lottery__Failed",
      "type": "error"
    },
    {
      "inputs": [
        {
          "internalType": "address",
          "name": "have",
          "type": "address"
        },
        {
          "internalType": "address",
          "name": "want",
          "type": "address"
        }
      ],
      "name": "OnlyCoordinatorCanFulfill",
      "type": "error"
    },
    {
      "anonymous": false,
      "inputs": [
        {
          "indexed": true,
          "internalType": "address",
          "name": "player",
          "type": "address"
        }
      ],
      "name": "EnterLottery",
      "type": "event"
    },
    {
      "anonymous": false,
      "inputs": [
        {
          "indexed": true,
          "internalType": "uint256",
          "name": "requestId",
          "type": "uint256"
        }
      ],
      "name": "RequestRandomWinner",
      "type": "event"
    },
    {
      "anonymous": false,
      "inputs": [
        {
          "indexed": true,
          "internalType": "address",
          "name": "winner",
          "type": "address"
        }
      ],
      "name": "Winners",
      "type": "event"
    },
    {
      "stateMutability": "payable",
      "type": "fallback"
    },
    {
      "inputs": [],
      "name": "MINAMOUNT",
      "outputs": [
        {
          "internalType": "uint256",
          "name": "",
          "type": "uint256"
        }
      ],
      "stateMutability": "view",
      "type": "function"
    },
    {
      "inputs": [],
      "name": "getBalance",
      "outputs": [
        {
          "internalType": "uint256",
          "name": "",
          "type": "uint256"
        }
      ],
      "stateMutability": "view",
      "type": "function"
    },
    {
      "inputs": [],
      "name": "getMinAmount",
      "outputs": [
        {
          "internalType": "uint256",
          "name": "",
          "type": "uint256"
        }
      ],
      "stateMutability": "pure",
      "type": "function"
    },
    {
      "inputs": [
        {
          "internalType": "uint64",
          "name": "_index",
          "type": "uint64"
        }
      ],
      "name": "getPlayer",
      "outputs": [
        {
          "internalType": "address",
          "name": "",
          "type": "address"
        }
      ],
      "stateMutability": "view",
      "type": "function"
    },
    {
      "inputs": [],
      "name": "getRecentWinner",
      "outputs": [
        {
          "internalType": "address",
          "name": "",
          "type": "address"
        }
      ],
      "stateMutability": "view",
      "type": "function"
    },
    {
      "inputs": [],
      "name": "i_subscriptionid",
      "outputs": [
        {
          "internalType": "uint256",
          "name": "",
          "type": "uint256"
        }
      ],
      "stateMutability": "view",
      "type": "function"
    },
    {
      "inputs": [],
      "name": "manager",
      "outputs": [
        {
          "internalType": "address",
          "name": "",
          "type": "address"
        }
      ],
      "stateMutability": "view",
      "type": "function"
    },
    {
      "inputs": [
        {
          "internalType": "address",
          "name": "",
          "type": "address"
        }
      ],
      "name": "playerToAmount",
      "outputs": [
        {
          "internalType": "uint256",
          "name": "",
          "type": "uint256"
        }
      ],
      "stateMutability": "view",
      "type": "function"
    },
    {
      "inputs": [
        {
          "internalType": "uint256",
          "name": "",
          "type": "uint256"
        }
      ],
      "name": "players",
      "outputs": [
        {
          "internalType": "address payable",
          "name": "",
          "type": "address"
        }
      ],
      "stateMutability": "view",
      "type": "function"
    },
    {
      "inputs": [
        {
          "internalType": "uint256",
          "name": "requestId",
          "type": "uint256"
        },
        {
          "internalType": "uint256[]",
          "name": "randomWords",
          "type": "uint256[]"
        }
      ],
      "name": "rawFulfillRandomWords",
      "outputs": [],
      "stateMutability": "nonpayable",
      "type": "function"
    },
    {
      "inputs": [],
      "name": "requestRandomWords",
      "outputs": [],
      "stateMutability": "nonpayable",
      "type": "function"
    },
    {
      "inputs": [],
      "name": "startLottery",
      "outputs": [],
      "stateMutability": "payable",
      "type": "function"
    },
    {
      "inputs": [],
      "name": "withdraw",
      "outputs": [],
      "stateMutability": "payable",
      "type": "function"
    },
    {
      "stateMutability": "payable",
      "type": "receive"
    }
  ],
  "transactionHash": "0x93a90b72e80b842700305c0206fe621aa84c27db919a6a7cc80ae192adb855ba",
  "args": [
    "0x6168499c0cFfCaCD319c818142124B7A15E857ab",
    "0xd89b2bf150e3b9e13446986e571fb9cab24b13cea0a43ea20a6049a85cc807cc",
    "7606",
    "500000"
  ],
  "numDeployments": 1,
  "solcInputHash": "979d8f89c3a7b3a38b79d50b3a6a3062",
  "bytecode": "0x6101406040523480156200001257600080fd5b5060405162001501380380620015018339818101604052810190620000389190620001a1565b838073ffffffffffffffffffffffffffffffffffffffff1660808173ffffffffffffffffffffffffffffffffffffffff1660601b815250505033600160006101000a81548173ffffffffffffffffffffffffffffffffffffffff021916908373ffffffffffffffffffffffffffffffffffffffff1602179055508373ffffffffffffffffffffffffffffffffffffffff1660a08173ffffffffffffffffffffffffffffffffffffffff1660601b815250508167ffffffffffffffff1660c081815250508260e081815250508167ffffffffffffffff166101008167ffffffffffffffff1660c01b815250508063ffffffff166101208163ffffffff1660e01b8152505050505050620002d7565b60008151905062000156816200026f565b92915050565b6000815190506200016d8162000289565b92915050565b6000815190506200018481620002a3565b92915050565b6000815190506200019b81620002bd565b92915050565b60008060008060808587031215620001b857600080fd5b6000620001c88782880162000145565b9450506020620001db878288016200015c565b9350506040620001ee878288016200018a565b9250506060620002018782880162000173565b91505092959194509250565b60006200021a826200022b565b9050919050565b6000819050919050565b600073ffffffffffffffffffffffffffffffffffffffff82169050919050565b600063ffffffff82169050919050565b600067ffffffffffffffff82169050919050565b6200027a816200020d565b81146200028657600080fd5b50565b620002948162000221565b8114620002a057600080fd5b50565b620002ae816200024b565b8114620002ba57600080fd5b50565b620002c8816200025b565b8114620002d457600080fd5b50565b60805160601c60a05160601c60c05160e0516101005160c01c6101205160e01c6111c76200033a600039600061087b01526000610858015260006108370152600061043d015260006107fb01526000818161046101526104b501526111c76000f3fe6080604052600436106100c65760003560e01c8063481c6a751161007f578063cfc7e2da11610059578063cfc7e2da14610242578063e0c862891461026d578063e9999b0314610284578063f71d96cb146102af576100d5565b8063481c6a751461019d57806370112756146101c8578063c33b46ba14610205576100d5565b806312065fe0146100df578063160344e21461010a5780631e66ad64146101145780631fe543e31461013f5780633ccfd60b14610168578063473f1ddc14610172576100d5565b366100d5576100d36102ec565b005b6100dd6102ec565b005b3480156100eb57600080fd5b506100f4610433565b6040516101019190610e8f565b60405180910390f35b6101126102ec565b005b34801561012057600080fd5b5061012961043b565b6040516101369190610e8f565b60405180910390f35b34801561014b57600080fd5b5061016660048036038101906101619190610c39565b61045f565b005b61017061051f565b005b34801561017e57600080fd5b50610187610677565b6040516101949190610d9d565b60405180910390f35b3480156101a957600080fd5b506101b26106a1565b6040516101bf9190610d9d565b60405180910390f35b3480156101d457600080fd5b506101ef60048036038101906101ea9190610bbe565b6106c7565b6040516101fc9190610e8f565b60405180910390f35b34801561021157600080fd5b5061022c60048036038101906102279190610c8d565b6106df565b6040516102399190610d9d565b60405180910390f35b34801561024e57600080fd5b50610257610757565b6040516102649190610e8f565b60405180910390f35b34801561027957600080fd5b50610282610767565b005b34801561029057600080fd5b50610299610940565b6040516102a69190610e8f565b60405180910390f35b3480156102bb57600080fd5b506102d660048036038101906102d19190610be7565b61094c565b6040516102e39190610db8565b60405180910390f35b67016345785d8a00003414610336576040517f08c379a000000000000000000000000000000000000000000000000000000000815260040161032d90610e4f565b60405180910390fd5b346000803373ffffffffffffffffffffffffffffffffffffffff1673ffffffffffffffffffffffffffffffffffffffff16815260200190815260200160002060008282546103849190610f17565b925050819055506002339080600181540180825580915050600190039060005260206000200160009091909190916101000a81548173ffffffffffffffffffffffffffffffffffffffff021916908373ffffffffffffffffffffffffffffffffffffffff1602179055503373ffffffffffffffffffffffffffffffffffffffff167fde7ffaf8976e3b39d4fb74cd196ccae530bbcc6539e8f8e5db2cc61ef21b9ac260405160405180910390a2565b600047905090565b7f000000000000000000000000000000000000000000000000000000000000000081565b7f000000000000000000000000000000000000000000000000000000000000000073ffffffffffffffffffffffffffffffffffffffff163373ffffffffffffffffffffffffffffffffffffffff161461051157337f00000000000000000000000000000000000000000000000000000000000000006040517f1cf993f4000000000000000000000000000000000000000000000000000000008152600401610508929190610dd3565b60405180910390fd5b61051b828261098b565b5050565b600160009054906101000a900473ffffffffffffffffffffffffffffffffffffffff1673ffffffffffffffffffffffffffffffffffffffff163373ffffffffffffffffffffffffffffffffffffffff16146105af576040517f08c379a00000000000000000000000000000000000000000000000000000000081526004016105a690610e6f565b60405180910390fd5b6000600360009054906101000a900473ffffffffffffffffffffffffffffffffffffffff1673ffffffffffffffffffffffffffffffffffffffff16476040516105f790610d88565b60006040518083038185875af1925050503d8060008114610634576040519150601f19603f3d011682016040523d82523d6000602084013e610639565b606091505b5050905080610674576040517ff98bebc900000000000000000000000000000000000000000000000000000000815260040160405180910390fd5b50565b6000600360009054906101000a900473ffffffffffffffffffffffffffffffffffffffff16905090565b600160009054906101000a900473ffffffffffffffffffffffffffffffffffffffff1681565b60006020528060005260406000206000915090505481565b600060028267ffffffffffffffff1681548110610725577f4e487b7100000000000000000000000000000000000000000000000000000000600052603260045260246000fd5b9060005260206000200160009054906101000a900473ffffffffffffffffffffffffffffffffffffffff169050919050565b600067016345785d8a0000905090565b600160009054906101000a900473ffffffffffffffffffffffffffffffffffffffff1673ffffffffffffffffffffffffffffffffffffffff163373ffffffffffffffffffffffffffffffffffffffff16146107f7576040517f08c379a00000000000000000000000000000000000000000000000000000000081526004016107ee90610e6f565b60405180910390fd5b60007f000000000000000000000000000000000000000000000000000000000000000073ffffffffffffffffffffffffffffffffffffffff16635d3b1d307f00000000000000000000000000000000000000000000000000000000000000007f000000000000000000000000000000000000000000000000000000000000000060037f000000000000000000000000000000000000000000000000000000000000000060016040518663ffffffff1660e01b81526004016108bc959493929190610dfc565b602060405180830381600087803b1580156108d657600080fd5b505af11580156108ea573d6000803e3d6000fd5b505050506040513d601f19601f8201168201806040525081019061090e9190610c10565b9050807f6700fef9fd9c98d6e3060eecfb082ea7ad01c71a1fbfdc8eaab73abf937ff3b260405160405180910390a250565b67016345785d8a000081565b6002818154811061095c57600080fd5b906000526020600020016000915054906101000a900473ffffffffffffffffffffffffffffffffffffffff1681565b6000600280549050826000815181106109cd577f4e487b7100000000000000000000000000000000000000000000000000000000600052603260045260246000fd5b60200260200101516109df9190611028565b9050600060028281548110610a1d577f4e487b7100000000000000000000000000000000000000000000000000000000600052603260045260246000fd5b9060005260206000200160009054906101000a900473ffffffffffffffffffffffffffffffffffffffff16905080600360006101000a81548173ffffffffffffffffffffffffffffffffffffffff021916908373ffffffffffffffffffffffffffffffffffffffff1602179055508073ffffffffffffffffffffffffffffffffffffffff167fb11c56e61687731aa474e7daf4e9f12109b5ddb7f02564b6d280e0660da6b51a60405160405180910390a250505050565b6000610ae7610ae284610ecf565b610eaa565b90508083825260208201905082856020860282011115610b0657600080fd5b60005b85811015610b365781610b1c8882610b7f565b845260208401935060208301925050600181019050610b09565b5050509392505050565b600081359050610b4f8161114c565b92915050565b600082601f830112610b6657600080fd5b8135610b76848260208601610ad4565b91505092915050565b600081359050610b8e81611163565b92915050565b600081519050610ba381611163565b92915050565b600081359050610bb88161117a565b92915050565b600060208284031215610bd057600080fd5b6000610bde84828501610b40565b91505092915050565b600060208284031215610bf957600080fd5b6000610c0784828501610b7f565b91505092915050565b600060208284031215610c2257600080fd5b6000610c3084828501610b94565b91505092915050565b60008060408385031215610c4c57600080fd5b6000610c5a85828601610b7f565b925050602083013567ffffffffffffffff811115610c7757600080fd5b610c8385828601610b55565b9150509250929050565b600060208284031215610c9f57600080fd5b6000610cad84828501610ba9565b91505092915050565b610cbf81610f7f565b82525050565b610cce81610f6d565b82525050565b610cdd81610f91565b82525050565b6000610cf0600083610efb565b9150610cfb826110f7565b600082019050919050565b6000610d13601183610f06565b9150610d1e826110fa565b602082019050919050565b6000610d36601783610f06565b9150610d4182611123565b602082019050919050565b610d5581610f9b565b82525050565b610d6481610fc9565b82525050565b610d7381610fd3565b82525050565b610d8281610fe3565b82525050565b6000610d9382610ce3565b9150819050919050565b6000602082019050610db26000830184610cc5565b92915050565b6000602082019050610dcd6000830184610cb6565b92915050565b6000604082019050610de86000830185610cc5565b610df56020830184610cc5565b9392505050565b600060a082019050610e116000830188610cd4565b610e1e6020830187610d79565b610e2b6040830186610d4c565b610e386060830185610d6a565b610e456080830184610d6a565b9695505050505050565b60006020820190508181036000830152610e6881610d06565b9050919050565b60006020820190508181036000830152610e8881610d29565b9050919050565b6000602082019050610ea46000830184610d5b565b92915050565b6000610eb4610ec5565b9050610ec08282610ff7565b919050565b6000604051905090565b600067ffffffffffffffff821115610eea57610ee96110b7565b5b602082029050602081019050919050565b600081905092915050565b600082825260208201905092915050565b6000610f2282610fc9565b9150610f2d83610fc9565b9250827fffffffffffffffffffffffffffffffffffffffffffffffffffffffffffffffff03821115610f6257610f61611059565b5b828201905092915050565b6000610f7882610fa9565b9050919050565b6000610f8a82610fa9565b9050919050565b6000819050919050565b600061ffff82169050919050565b600073ffffffffffffffffffffffffffffffffffffffff82169050919050565b6000819050919050565b600063ffffffff82169050919050565b600067ffffffffffffffff82169050919050565b611000826110e6565b810181811067ffffffffffffffff8211171561101f5761101e6110b7565b5b80604052505050565b600061103382610fc9565b915061103e83610fc9565b92508261104e5761104d611088565b5b828206905092915050565b7f4e487b7100000000000000000000000000000000000000000000000000000000600052601160045260246000fd5b7f4e487b7100000000000000000000000000000000000000000000000000000000600052601260045260246000fd5b7f4e487b7100000000000000000000000000000000000000000000000000000000600052604160045260246000fd5b6000601f19601f8301169050919050565b50565b7f596f75206e656564206d6f726520455448000000000000000000000000000000600082015250565b7f596f7520617265206e6f7420746865206d616e61676572000000000000000000600082015250565b61115581610f6d565b811461116057600080fd5b50565b61116c81610fc9565b811461117757600080fd5b50565b61118381610fe3565b811461118e57600080fd5b5056fea2646970667358221220f5e468b5f0170dfd884e05a44ce83645d741068d9debdc2806dd81214eeeb52464736f6c63430008040033",
  "devdoc": {
    "kind": "dev",
    "methods": {},
    "version": 1
  },
  "userdoc": {
    "kind": "user",
    "methods": {},
    "version": 1
  },
  "storageLayout": {
    "storage": [
      {
        "astId": 165,
        "contract": "contracts/Lottery.sol:Lottery",
        "label": "playerToAmount",
        "offset": 0,
        "slot": "0",
        "type": "t_mapping(t_address,t_uint256)"
      },
      {
        "astId": 167,
        "contract": "contracts/Lottery.sol:Lottery",
        "label": "manager",
        "offset": 0,
        "slot": "1",
        "type": "t_address"
      },
      {
        "astId": 170,
        "contract": "contracts/Lottery.sol:Lottery",
        "label": "players",
        "offset": 0,
        "slot": "2",
        "type": "t_array(t_address_payable)dyn_storage"
      },
      {
        "astId": 180,
        "contract": "contracts/Lottery.sol:Lottery",
        "label": "s_recentWinner",
        "offset": 0,
        "slot": "3",
        "type": "t_address"
      }
    ],
    "types": {
      "t_address": {
        "encoding": "inplace",
        "label": "address",
        "numberOfBytes": "20"
      },
      "t_address_payable": {
        "encoding": "inplace",
        "label": "address payable",
        "numberOfBytes": "20"
      },
      "t_array(t_address_payable)dyn_storage": {
        "base": "t_address_payable",
        "encoding": "dynamic_array",
        "label": "address payable[]",
        "numberOfBytes": "32"
      },
      "t_mapping(t_address,t_uint256)": {
        "encoding": "mapping",
        "key": "t_address",
        "label": "mapping(address => uint256)",
        "numberOfBytes": "32",
        "value": "t_uint256"
      },
      "t_uint256": {
        "encoding": "inplace",
        "label": "uint256",
        "numberOfBytes": "32"
      }
    }
  }
}